{
  "contractName": "Engine",
  "abi": [
    {
      "anonymous": false,
      "inputs": [
        {
          "indexed": false,
          "internalType": "uint256",
          "name": "_index",
          "type": "uint256"
        },
        {
          "indexed": false,
          "internalType": "address",
          "name": "_bidder",
          "type": "address"
        },
        {
          "indexed": false,
          "internalType": "uint256",
          "name": "amount",
          "type": "uint256"
        }
      ],
      "name": "AuctionBid",
      "type": "event"
    },
    {
      "anonymous": false,
      "inputs": [
        {
          "indexed": false,
          "internalType": "uint256",
          "name": "_index",
          "type": "uint256"
        },
        {
          "indexed": false,
          "internalType": "address",
          "name": "_creator",
          "type": "address"
        },
        {
          "indexed": false,
          "internalType": "address",
          "name": "_asset",
          "type": "address"
        }
      ],
      "name": "AuctionCreated",
      "type": "event"
    },
    {
      "anonymous": false,
      "inputs": [
        {
          "indexed": false,
          "internalType": "uint256",
          "name": "auctionIndex",
          "type": "uint256"
        },
        {
          "indexed": false,
          "internalType": "address",
          "name": "claimer",
          "type": "address"
        }
      ],
      "name": "Claim",
      "type": "event"
    },
    {
      "anonymous": false,
      "inputs": [
        {
          "indexed": true,
          "internalType": "address",
          "name": "previousOwner",
          "type": "address"
        },
        {
          "indexed": true,
          "internalType": "address",
          "name": "newOwner",
          "type": "address"
        }
      ],
      "name": "OwnershipTransferred",
      "type": "event"
    },
    {
      "anonymous": false,
      "inputs": [
        {
          "indexed": false,
          "internalType": "address",
          "name": "receiver",
          "type": "address"
        },
        {
          "indexed": false,
          "internalType": "uint256",
          "name": "amount",
          "type": "uint256"
        },
        {
          "indexed": false,
          "internalType": "uint256",
          "name": "commission",
          "type": "uint256"
        },
        {
          "indexed": false,
          "internalType": "uint256",
          "name": "royalties",
          "type": "uint256"
        },
        {
          "indexed": false,
          "internalType": "uint256",
          "name": "safetyCheckValue",
          "type": "uint256"
        }
      ],
      "name": "PaymentToOwner",
      "type": "event"
    },
    {
      "anonymous": false,
      "inputs": [
        {
          "indexed": false,
          "internalType": "uint256",
          "name": "_index",
          "type": "uint256"
        },
        {
          "indexed": false,
          "internalType": "address",
          "name": "_bidder",
          "type": "address"
        },
        {
          "indexed": false,
          "internalType": "uint256",
          "name": "amount",
          "type": "uint256"
        }
      ],
      "name": "ReturnBidFunds",
      "type": "event"
    },
    {
      "anonymous": false,
      "inputs": [
        {
          "indexed": false,
          "internalType": "address",
          "name": "receiver",
          "type": "address"
        },
        {
          "indexed": false,
          "internalType": "uint256",
          "name": "amount",
          "type": "uint256"
        }
      ],
      "name": "Royalties",
      "type": "event"
    },
    {
      "inputs": [],
      "name": "accumulatedCommission",
      "outputs": [
        {
          "internalType": "uint256",
          "name": "",
          "type": "uint256"
        }
      ],
      "stateMutability": "view",
      "type": "function",
      "constant": true
    },
    {
      "inputs": [
        {
          "internalType": "uint256",
          "name": "",
          "type": "uint256"
        }
      ],
      "name": "auctions",
      "outputs": [
        {
          "internalType": "address",
          "name": "assetAddress",
          "type": "address"
        },
        {
          "internalType": "uint256",
          "name": "assetId",
          "type": "uint256"
        },
        {
          "internalType": "address payable",
          "name": "creator",
          "type": "address"
        },
        {
          "internalType": "uint256",
          "name": "startTime",
          "type": "uint256"
        },
        {
          "internalType": "uint256",
          "name": "duration",
          "type": "uint256"
        },
        {
          "internalType": "uint256",
          "name": "currentBidAmount",
          "type": "uint256"
        },
        {
          "internalType": "address payable",
          "name": "currentBidOwner",
          "type": "address"
        },
        {
          "internalType": "uint256",
          "name": "bidCount",
          "type": "uint256"
        }
      ],
      "stateMutability": "view",
      "type": "function",
      "constant": true
    },
    {
      "inputs": [],
      "name": "commission",
      "outputs": [
        {
          "internalType": "uint256",
          "name": "",
          "type": "uint256"
        }
      ],
      "stateMutability": "view",
      "type": "function",
      "constant": true
    },
    {
      "inputs": [
        {
          "internalType": "uint256",
          "name": "",
          "type": "uint256"
        }
      ],
      "name": "offers",
      "outputs": [
        {
          "internalType": "address",
          "name": "assetAddress",
          "type": "address"
        },
        {
          "internalType": "uint256",
          "name": "tokenId",
          "type": "uint256"
        },
        {
          "internalType": "address payable",
          "name": "creator",
          "type": "address"
        },
        {
          "internalType": "uint256",
          "name": "price",
          "type": "uint256"
        },
        {
          "internalType": "bool",
          "name": "isOnSale",
          "type": "bool"
        },
        {
          "internalType": "bool",
          "name": "isAuction",
          "type": "bool"
        },
        {
          "internalType": "uint256",
          "name": "idAuction",
          "type": "uint256"
        }
      ],
      "stateMutability": "view",
      "type": "function",
      "constant": true
    },
    {
      "inputs": [],
      "name": "owner",
      "outputs": [
        {
          "internalType": "address",
          "name": "",
          "type": "address"
        }
      ],
      "stateMutability": "view",
      "type": "function",
      "constant": true
    },
    {
      "inputs": [],
      "name": "renounceOwnership",
      "outputs": [],
      "stateMutability": "nonpayable",
      "type": "function"
    },
    {
      "inputs": [],
      "name": "totalSales",
      "outputs": [
        {
          "internalType": "uint256",
          "name": "",
          "type": "uint256"
        }
      ],
      "stateMutability": "view",
      "type": "function",
      "constant": true
    },
    {
      "inputs": [
        {
          "internalType": "address",
          "name": "newOwner",
          "type": "address"
        }
      ],
      "name": "transferOwnership",
      "outputs": [],
      "stateMutability": "nonpayable",
      "type": "function"
    },
    {
      "inputs": [
        {
          "internalType": "address",
          "name": "_assetAddress",
          "type": "address"
        },
        {
          "internalType": "uint256",
          "name": "_tokenId",
          "type": "uint256"
        },
        {
          "internalType": "bool",
          "name": "_isDirectSale",
          "type": "bool"
        },
        {
          "internalType": "bool",
          "name": "_isAuction",
          "type": "bool"
        },
        {
          "internalType": "uint256",
          "name": "_price",
          "type": "uint256"
        },
        {
          "internalType": "uint256",
          "name": "_startPrice",
          "type": "uint256"
        },
        {
          "internalType": "uint256",
          "name": "_startTime",
          "type": "uint256"
        },
        {
          "internalType": "uint256",
          "name": "_duration",
          "type": "uint256"
        }
      ],
      "name": "createOffer",
      "outputs": [],
      "stateMutability": "nonpayable",
      "type": "function"
    },
    {
      "inputs": [
        {
          "internalType": "uint256",
          "name": "_tokenId",
          "type": "uint256"
        }
      ],
      "name": "getAuctionId",
      "outputs": [
        {
          "internalType": "uint256",
          "name": "",
          "type": "uint256"
        }
      ],
      "stateMutability": "view",
      "type": "function",
      "constant": true
    },
    {
      "inputs": [],
      "name": "ahora",
      "outputs": [
        {
          "internalType": "uint256",
          "name": "",
          "type": "uint256"
        }
      ],
      "stateMutability": "view",
      "type": "function",
      "constant": true
    },
    {
      "inputs": [
        {
          "internalType": "uint256",
          "name": "_tokenId",
          "type": "uint256"
        }
      ],
      "name": "removeFromAuction",
      "outputs": [],
      "stateMutability": "nonpayable",
      "type": "function"
    },
    {
      "inputs": [
        {
          "internalType": "uint256",
          "name": "_tokenId",
          "type": "uint256"
        }
      ],
      "name": "removeFromSale",
      "outputs": [],
      "stateMutability": "nonpayable",
      "type": "function"
    },
    {
      "inputs": [
        {
          "internalType": "uint256",
          "name": "_commission",
          "type": "uint256"
        }
      ],
      "name": "setCommission",
      "outputs": [],
      "stateMutability": "nonpayable",
      "type": "function"
    },
    {
      "inputs": [
        {
          "internalType": "uint256",
          "name": "_tokenId",
          "type": "uint256"
        }
      ],
      "name": "buy",
      "outputs": [],
      "stateMutability": "payable",
      "type": "function",
      "payable": true
    },
    {
      "inputs": [
        {
          "internalType": "uint256",
          "name": "auctionIndex",
          "type": "uint256"
        }
      ],
      "name": "bid",
      "outputs": [],
      "stateMutability": "payable",
      "type": "function",
      "payable": true
    },
    {
      "inputs": [],
      "name": "getTotalAuctions",
      "outputs": [
        {
          "internalType": "uint256",
          "name": "",
          "type": "uint256"
        }
      ],
      "stateMutability": "view",
      "type": "function",
      "constant": true
    },
    {
      "inputs": [
        {
          "internalType": "uint256",
          "name": "_auctionIndex",
          "type": "uint256"
        }
      ],
      "name": "isActive",
      "outputs": [
        {
          "internalType": "bool",
          "name": "",
          "type": "bool"
        }
      ],
      "stateMutability": "view",
      "type": "function",
      "constant": true
    },
    {
      "inputs": [
        {
          "internalType": "uint256",
          "name": "_auctionIndex",
          "type": "uint256"
        }
      ],
      "name": "isFinished",
      "outputs": [
        {
          "internalType": "bool",
          "name": "",
          "type": "bool"
        }
      ],
      "stateMutability": "view",
      "type": "function",
      "constant": true
    },
    {
      "inputs": [
        {
          "internalType": "uint256",
          "name": "_auctionIndex",
          "type": "uint256"
        }
      ],
      "name": "getStatus",
      "outputs": [
        {
          "internalType": "enum Engine.Status",
          "name": "",
          "type": "uint8"
        }
      ],
      "stateMutability": "view",
      "type": "function",
      "constant": true
    },
    {
      "inputs": [
        {
          "internalType": "uint256",
          "name": "_auctionIndex",
          "type": "uint256"
        }
      ],
      "name": "endDate",
      "outputs": [
        {
          "internalType": "uint256",
          "name": "",
          "type": "uint256"
        }
      ],
      "stateMutability": "view",
      "type": "function",
      "constant": true
    },
    {
      "inputs": [
        {
          "internalType": "uint256",
          "name": "_auctionIndex",
          "type": "uint256"
        }
      ],
      "name": "getCurrentBidOwner",
      "outputs": [
        {
          "internalType": "address",
          "name": "",
          "type": "address"
        }
      ],
      "stateMutability": "view",
      "type": "function",
      "constant": true
    },
    {
      "inputs": [
        {
          "internalType": "uint256",
          "name": "_auctionIndex",
          "type": "uint256"
        }
      ],
      "name": "getCurrentBidAmount",
      "outputs": [
        {
          "internalType": "uint256",
          "name": "",
          "type": "uint256"
        }
      ],
      "stateMutability": "view",
      "type": "function",
      "constant": true
    },
    {
      "inputs": [
        {
          "internalType": "uint256",
          "name": "_auctionIndex",
          "type": "uint256"
        }
      ],
      "name": "getBidCount",
      "outputs": [
        {
          "internalType": "uint256",
          "name": "",
          "type": "uint256"
        }
      ],
      "stateMutability": "view",
      "type": "function",
      "constant": true
    },
    {
      "inputs": [
        {
          "internalType": "uint256",
          "name": "auctionIndex",
          "type": "uint256"
        }
      ],
      "name": "getWinner",
      "outputs": [
        {
          "internalType": "address",
          "name": "",
          "type": "address"
        }
      ],
      "stateMutability": "view",
      "type": "function",
      "constant": true
    },
    {
      "inputs": [
        {
          "internalType": "uint256",
          "name": "auctionIndex",
          "type": "uint256"
        }
      ],
      "name": "claimAsset",
      "outputs": [],
      "stateMutability": "nonpayable",
      "type": "function"
    },
    {
      "inputs": [
        {
          "internalType": "uint256",
          "name": "auctionIndex",
          "type": "uint256"
        }
      ],
      "name": "automaticSetWinner",
      "outputs": [],
      "stateMutability": "nonpayable",
      "type": "function"
    },
    {
      "inputs": [
        {
          "internalType": "uint256",
          "name": "_tokenId",
          "type": "uint256"
        }
      ],
      "name": "cancelAuctionOfToken",
      "outputs": [],
      "stateMutability": "nonpayable",
      "type": "function"
    },
    {
      "inputs": [],
      "name": "extractBalance",
      "outputs": [],
      "stateMutability": "nonpayable",
      "type": "function"
    }
  ],
  "bytecode": "0x60806040526000600355600060045560006005553480156200002057600080fd5b50600062000033620000de60201b60201c565b9050806000806101000a81548173ffffffffffffffffffffffffffffffffffffffff021916908373ffffffffffffffffffffffffffffffffffffffff1602179055508073ffffffffffffffffffffffffffffffffffffffff16600073ffffffffffffffffffffffffffffffffffffffff167f8be0079c531659141344cd1fd0a4f28419497f9722a3daafe3b4186f6b6457e060405160405180910390a35060018081905550620000e6565b600033905090565b61573880620000f66000396000f3fe6080604052600436106101c25760003560e01c80636975846a116100f75780638a72ea6a11610095578063d96a094a11610064578063d96a094a14610676578063e148919114610692578063e8ba6509146106bd578063f2fde38b146106fa576101c2565b80638a72ea6a146105b45780638da5cb5b146105f7578063ae69367314610622578063d3c2a5921461064d576101c2565b8063744d3411116100d1578063744d3411146104d45780637b5a96a61461051157806382afd23b1461053a57806386b4607314610577576101c2565b80636975846a146104695780636af83b24146104a6578063715018a6146104bd576101c2565b8063454a2ab3116101645780635552f6ca1161013e5780635552f6ca14610394578063571a26a0146103bd5780635c622a0e146104015780636605ff661461043e576101c2565b8063454a2ab3146103125780634cac5b4b1461032e57806352ad091a1461036b576101c2565b80632b866759116101a05780632b86675914610256578063355e6b43146102815780633ef14cc8146102aa5780634129b2c9146102d5576101c2565b806312f4ea2e146101c75780631361a3b6146102045780632241091b1461022d575b600080fd5b3480156101d357600080fd5b506101ee60048036038101906101e991906145bd565b610723565b6040516101fb9190614eda565b60405180910390f35b34801561021057600080fd5b5061022b600480360381019061022691906145bd565b610853565b005b34801561023957600080fd5b50610254600480360381019061024f91906145bd565b610aff565b005b34801561026257600080fd5b5061026b610f8e565b6040516102789190614eda565b60405180910390f35b34801561028d57600080fd5b506102a860048036038101906102a391906145bd565b610f96565b005b3480156102b657600080fd5b506102bf611061565b6040516102cc9190614eda565b60405180910390f35b3480156102e157600080fd5b506102fc60048036038101906102f791906145bd565b61106e565b60405161030991906149e9565b60405180910390f35b61032c600480360381019061032791906145bd565b61112b565b005b34801561033a57600080fd5b50610355600480360381019061035091906145bd565b61153d565b6040516103629190614eda565b60405180910390f35b34801561037757600080fd5b50610392600480360381019061038d91906145bd565b6115ad565b005b3480156103a057600080fd5b506103bb60048036038101906103b691906145bd565b611a97565b005b3480156103c957600080fd5b506103e460048036038101906103df91906145bd565b611b1f565b6040516103f8989796959493929190614b26565b60405180910390f35b34801561040d57600080fd5b50610428600480360381019061042391906145bd565b611bd7565b6040516104359190614bbf565b60405180910390f35b34801561044a57600080fd5b50610453611c71565b6040516104609190614eda565b60405180910390f35b34801561047557600080fd5b50610490600480360381019061048b91906145bd565b611c77565b60405161049d9190614eda565b60405180910390f35b3480156104b257600080fd5b506104bb611ccc565b005b3480156104c957600080fd5b506104d2611e5c565b005b3480156104e057600080fd5b506104fb60048036038101906104f691906145bd565b611f96565b6040516105089190614eda565b60405180910390f35b34801561051d57600080fd5b506105386004803603810190610533919061450b565b611feb565b005b34801561054657600080fd5b50610561600480360381019061055c91906145bd565b6124f2565b60405161056e9190614ba4565b60405180910390f35b34801561058357600080fd5b5061059e600480360381019061059991906145bd565b612577565b6040516105ab91906149e9565b60405180910390f35b3480156105c057600080fd5b506105db60048036038101906105d691906145bd565b6125ec565b6040516105ee9796959493929190614ab7565b60405180910390f35b34801561060357600080fd5b5061060c612688565b60405161061991906149e9565b60405180910390f35b34801561062e57600080fd5b506106376126b1565b6040516106449190614eda565b60405180910390f35b34801561065957600080fd5b50610674600480360381019061066f91906145bd565b6126b7565b005b610690600480360381019061068b91906145bd565b61273f565b005b34801561069e57600080fd5b506106a76132ac565b6040516106b49190614eda565b60405180910390f35b3480156106c957600080fd5b506106e460048036038101906106df91906145bd565b6132b2565b6040516106f19190614ba4565b60405180910390f35b34801561070657600080fd5b50610721600480360381019061071c91906144b9565b613336565b005b600080600660008481526020019081526020016000206040518060e00160405290816000820160009054906101000a900473ffffffffffffffffffffffffffffffffffffffff1673ffffffffffffffffffffffffffffffffffffffff1673ffffffffffffffffffffffffffffffffffffffff168152602001600182015481526020016002820160009054906101000a900473ffffffffffffffffffffffffffffffffffffffff1673ffffffffffffffffffffffffffffffffffffffff1673ffffffffffffffffffffffffffffffffffffffff168152602001600382015481526020016004820160009054906101000a900460ff161515151581526020016004820160019054906101000a900460ff1615151515815260200160058201548152505090508060c00151915050919050565b6000600660008381526020019081526020016000206040518060e00160405290816000820160009054906101000a900473ffffffffffffffffffffffffffffffffffffffff1673ffffffffffffffffffffffffffffffffffffffff1673ffffffffffffffffffffffffffffffffffffffff168152602001600182015481526020016002820160009054906101000a900473ffffffffffffffffffffffffffffffffffffffff1673ffffffffffffffffffffffffffffffffffffffff1673ffffffffffffffffffffffffffffffffffffffff168152602001600382015481526020016004820160009054906101000a900460ff161515151581526020016004820160019054906101000a900460ff161515151581526020016005820154815250509050806040015173ffffffffffffffffffffffffffffffffffffffff163373ffffffffffffffffffffffffffffffffffffffff16146109e7576040517f08c379a00000000000000000000000000000000000000000000000000000000081526004016109de90614cfa565b60405180910390fd5b6000816080019015159081151581525050806006600084815260200190815260200160002060008201518160000160006101000a81548173ffffffffffffffffffffffffffffffffffffffff021916908373ffffffffffffffffffffffffffffffffffffffff1602179055506020820151816001015560408201518160020160006101000a81548173ffffffffffffffffffffffffffffffffffffffff021916908373ffffffffffffffffffffffffffffffffffffffff1602179055506060820151816003015560808201518160040160006101000a81548160ff02191690831515021790555060a08201518160040160016101000a81548160ff02191690831515021790555060c082015181600501559050505050565b6000600660008381526020019081526020016000206040518060e00160405290816000820160009054906101000a900473ffffffffffffffffffffffffffffffffffffffff1673ffffffffffffffffffffffffffffffffffffffff1673ffffffffffffffffffffffffffffffffffffffff168152602001600182015481526020016002820160009054906101000a900473ffffffffffffffffffffffffffffffffffffffff1673ffffffffffffffffffffffffffffffffffffffff1673ffffffffffffffffffffffffffffffffffffffff168152602001600382015481526020016004820160009054906101000a900460ff161515151581526020016004820160019054906101000a900460ff161515151581526020016005820154815250509050806040015173ffffffffffffffffffffffffffffffffffffffff163373ffffffffffffffffffffffffffffffffffffffff1614610c93576040517f08c379a0000000000000000000000000000000000000000000000000000000008152600401610c8a90614cfa565b60405180910390fd5b60006002826020015181548110610cd3577f4e487b7100000000000000000000000000000000000000000000000000000000600052603260045260246000fd5b9060005260206000209060080201604051806101000160405290816000820160009054906101000a900473ffffffffffffffffffffffffffffffffffffffff1673ffffffffffffffffffffffffffffffffffffffff1673ffffffffffffffffffffffffffffffffffffffff168152602001600182015481526020016002820160009054906101000a900473ffffffffffffffffffffffffffffffffffffffff1673ffffffffffffffffffffffffffffffffffffffff1673ffffffffffffffffffffffffffffffffffffffff1681526020016003820154815260200160048201548152602001600582015481526020016006820160009054906101000a900473ffffffffffffffffffffffffffffffffffffffff1673ffffffffffffffffffffffffffffffffffffffff1673ffffffffffffffffffffffffffffffffffffffff168152602001600782015481525050905060008160e0015114610e6a576040517f08c379a0000000000000000000000000000000000000000000000000000000008152600401610e6190614c7a565b60405180910390fd5b60008260a001901515908115158152505060008260c0018181525050816006600085815260200190815260200160002060008201518160000160006101000a81548173ffffffffffffffffffffffffffffffffffffffff021916908373ffffffffffffffffffffffffffffffffffffffff1602179055506020820151816001015560408201518160020160006101000a81548173ffffffffffffffffffffffffffffffffffffffff021916908373ffffffffffffffffffffffffffffffffffffffff1602179055506060820151816003015560808201518160040160006101000a81548160ff02191690831515021790555060a08201518160040160016101000a81548160ff02191690831515021790555060c08201518160050155905050505050565b600042905090565b610f9e6134df565b73ffffffffffffffffffffffffffffffffffffffff16610fbc612688565b73ffffffffffffffffffffffffffffffffffffffff1614611012576040517f08c379a000000000000000000000000000000000000000000000000000000000815260040161100990614dda565b60405180910390fd5b611388811115611057576040517f08c379a000000000000000000000000000000000000000000000000000000000815260040161104e90614e5a565b60405180910390fd5b8060038190555050565b6000600280549050905090565b6000611079826132b2565b6110b8576040517f08c379a00000000000000000000000000000000000000000000000000000000081526004016110af90614bfa565b60405180910390fd5b600282815481106110f2577f4e487b7100000000000000000000000000000000000000000000000000000000600052603260045260246000fd5b906000526020600020906008020160060160009054906101000a900473ffffffffffffffffffffffffffffffffffffffff169050919050565b60026001541415611171576040517f08c379a000000000000000000000000000000000000000000000000000000000815260040161116890614eba565b60405180910390fd5b60026001819055506000600282815481106111b5577f4e487b7100000000000000000000000000000000000000000000000000000000600052603260045260246000fd5b90600052602060002090600802019050600073ffffffffffffffffffffffffffffffffffffffff168160020160009054906101000a900473ffffffffffffffffffffffffffffffffffffffff1673ffffffffffffffffffffffffffffffffffffffff161415611259576040517f08c379a000000000000000000000000000000000000000000000000000000000815260040161125090614d1a565b60405180910390fd5b611262826124f2565b6112a1576040517f08c379a000000000000000000000000000000000000000000000000000000000815260040161129890614cba565b60405180910390fd5b806005015434116112e7576040517f08c379a00000000000000000000000000000000000000000000000000000000081526004016112de90614c1a565b60405180910390fd5b600081600501541415801561134d5750600073ffffffffffffffffffffffffffffffffffffffff168160060160009054906101000a900473ffffffffffffffffffffffffffffffffffffffff1673ffffffffffffffffffffffffffffffffffffffff1614155b1561148b5760008160060160009054906101000a900473ffffffffffffffffffffffffffffffffffffffff1673ffffffffffffffffffffffffffffffffffffffff1682600501546040516113a0906149d4565b60006040518083038185875af1925050503d80600081146113dd576040519150601f19603f3d011682016040523d82523d6000602084013e6113e2565b606091505b5050905080611426576040517f08c379a000000000000000000000000000000000000000000000000000000000815260040161141d90614e7a565b60405180910390fd5b7f972fd66eadedfb87beff023a37f4d8c6a91fdd147fa0d3c036e0c6c5a0cdc795838360060160009054906101000a900473ffffffffffffffffffffffffffffffffffffffff16846005015460405161148193929190614f55565b60405180910390a1505b348160050181905550338160060160006101000a81548173ffffffffffffffffffffffffffffffffffffffff021916908373ffffffffffffffffffffffffffffffffffffffff1602179055506114ef600182600701546134e790919063ffffffff16565b81600701819055507fb8d756f2d1da4663767eb4d559780ace84f2f65a421a60ddcb47e8b2e5d2fd2682333460405161152a93929190614f8c565b60405180910390a1506001808190555050565b6000806002838154811061157a577f4e487b7100000000000000000000000000000000000000000000000000000000600052603260045260246000fd5b906000526020600020906008020190506115a5816004015482600301546134e790919063ffffffff16565b915050919050565b6115b56134df565b73ffffffffffffffffffffffffffffffffffffffff166115d3612688565b73ffffffffffffffffffffffffffffffffffffffff1614611629576040517f08c379a000000000000000000000000000000000000000000000000000000000815260040161162090614dda565b60405180910390fd5b6002600154141561166f576040517f08c379a000000000000000000000000000000000000000000000000000000000815260040161166690614eba565b60405180910390fd5b60026001819055506000600660008381526020019081526020016000206040518060e00160405290816000820160009054906101000a900473ffffffffffffffffffffffffffffffffffffffff1673ffffffffffffffffffffffffffffffffffffffff1673ffffffffffffffffffffffffffffffffffffffff168152602001600182015481526020016002820160009054906101000a900473ffffffffffffffffffffffffffffffffffffffff1673ffffffffffffffffffffffffffffffffffffffff1673ffffffffffffffffffffffffffffffffffffffff168152602001600382015481526020016004820160009054906101000a900460ff161515151581526020016004820160019054906101000a900460ff1615151515815260200160058201548152505090508060a001516117dd576040517f08c379a00000000000000000000000000000000000000000000000000000000081526004016117d490614dba565b60405180910390fd5b600060028260c001518154811061181d577f4e487b7100000000000000000000000000000000000000000000000000000000600052603260045260246000fd5b9060005260206000209060080201604051806101000160405290816000820160009054906101000a900473ffffffffffffffffffffffffffffffffffffffff1673ffffffffffffffffffffffffffffffffffffffff1673ffffffffffffffffffffffffffffffffffffffff168152602001600182015481526020016002820160009054906101000a900473ffffffffffffffffffffffffffffffffffffffff1673ffffffffffffffffffffffffffffffffffffffff1673ffffffffffffffffffffffffffffffffffffffff1681526020016003820154815260200160048201548152602001600582015481526020016006820160009054906101000a900473ffffffffffffffffffffffffffffffffffffffff1673ffffffffffffffffffffffffffffffffffffffff1673ffffffffffffffffffffffffffffffffffffffff168152602001600782015481525050905061197782826134fd565b60008260a0019015159081151581525050816006600085815260200190815260200160002060008201518160000160006101000a81548173ffffffffffffffffffffffffffffffffffffffff021916908373ffffffffffffffffffffffffffffffffffffffff1602179055506020820151816001015560408201518160020160006101000a81548173ffffffffffffffffffffffffffffffffffffffff021916908373ffffffffffffffffffffffffffffffffffffffff1602179055506060820151816003015560808201518160040160006101000a81548160ff02191690831515021790555060a08201518160040160016101000a81548160ff02191690831515021790555060c0820151816005015590505050506001808190555050565b611a9f6134df565b73ffffffffffffffffffffffffffffffffffffffff16611abd612688565b73ffffffffffffffffffffffffffffffffffffffff1614611b13576040517f08c379a0000000000000000000000000000000000000000000000000000000008152600401611b0a90614dda565b60405180910390fd5b611b1c8161374d565b50565b60028181548110611b2f57600080fd5b90600052602060002090600802016000915090508060000160009054906101000a900473ffffffffffffffffffffffffffffffffffffffff16908060010154908060020160009054906101000a900473ffffffffffffffffffffffffffffffffffffffff16908060030154908060040154908060050154908060060160009054906101000a900473ffffffffffffffffffffffffffffffffffffffff16908060070154905088565b60008060028381548110611c14577f4e487b7100000000000000000000000000000000000000000000000000000000600052603260045260246000fd5b906000526020600020906008020190508060030154421015611c3a576000915050611c6c565b611c55816004015482600301546134e790919063ffffffff16565b421015611c66576001915050611c6c565b60029150505b919050565b60055481565b600060028281548110611cb3577f4e487b7100000000000000000000000000000000000000000000000000000000600052603260045260246000fd5b9060005260206000209060080201600501549050919050565b60026001541415611d12576040517f08c379a0000000000000000000000000000000000000000000000000000000008152600401611d0990614eba565b60405180910390fd5b6002600181905550611d226134df565b73ffffffffffffffffffffffffffffffffffffffff16611d40612688565b73ffffffffffffffffffffffffffffffffffffffff1614611d96576040517f08c379a0000000000000000000000000000000000000000000000000000000008152600401611d8d90614dda565b60405180910390fd5b600033905060008173ffffffffffffffffffffffffffffffffffffffff16600454604051611dc3906149d4565b60006040518083038185875af1925050503d8060008114611e00576040519150601f19603f3d011682016040523d82523d6000602084013e611e05565b606091505b5050905080611e49576040517f08c379a0000000000000000000000000000000000000000000000000000000008152600401611e4090614e7a565b60405180910390fd5b6000600481905550505060018081905550565b611e646134df565b73ffffffffffffffffffffffffffffffffffffffff16611e82612688565b73ffffffffffffffffffffffffffffffffffffffff1614611ed8576040517f08c379a0000000000000000000000000000000000000000000000000000000008152600401611ecf90614dda565b60405180910390fd5b600073ffffffffffffffffffffffffffffffffffffffff1660008054906101000a900473ffffffffffffffffffffffffffffffffffffffff1673ffffffffffffffffffffffffffffffffffffffff167f8be0079c531659141344cd1fd0a4f28419497f9722a3daafe3b4186f6b6457e060405160405180910390a360008060006101000a81548173ffffffffffffffffffffffffffffffffffffffff021916908373ffffffffffffffffffffffffffffffffffffffff160217905550565b600060028281548110611fd2577f4e487b7100000000000000000000000000000000000000000000000000000000600052603260045260246000fd5b9060005260206000209060080201600701549050919050565b60008890503373ffffffffffffffffffffffffffffffffffffffff168173ffffffffffffffffffffffffffffffffffffffff16636352211e8a6040518263ffffffff1660e01b81526004016120409190614eda565b60206040518083038186803b15801561205857600080fd5b505afa15801561206c573d6000803e3d6000fd5b505050506040513d601f19601f8201168201806040525081019061209091906144e2565b73ffffffffffffffffffffffffffffffffffffffff16146120e6576040517f08c379a00000000000000000000000000000000000000000000000000000000081526004016120dd90614d5a565b60405180910390fd5b3073ffffffffffffffffffffffffffffffffffffffff168173ffffffffffffffffffffffffffffffffffffffff1663081812fc8a6040518263ffffffff1660e01b81526004016121369190614eda565b60206040518083038186803b15801561214e57600080fd5b505afa158015612162573d6000803e3d6000fd5b505050506040513d601f19601f8201168201806040525081019061218691906144e2565b73ffffffffffffffffffffffffffffffffffffffff16146121dc576040517f08c379a00000000000000000000000000000000000000000000000000000000081526004016121d390614e9a565b60405180910390fd5b6000600660008a81526020019081526020016000206040518060e00160405290816000820160009054906101000a900473ffffffffffffffffffffffffffffffffffffffff1673ffffffffffffffffffffffffffffffffffffffff1673ffffffffffffffffffffffffffffffffffffffff168152602001600182015481526020016002820160009054906101000a900473ffffffffffffffffffffffffffffffffffffffff1673ffffffffffffffffffffffffffffffffffffffff1673ffffffffffffffffffffffffffffffffffffffff168152602001600382015481526020016004820160009054906101000a900460ff161515151581526020016004820160019054906101000a900460ff161515151581526020016005820154815250509050600015158160800151151514801561231e5750600015158160a001511515145b61235d576040517f08c379a000000000000000000000000000000000000000000000000000000000815260040161235490614d3a565b60405180910390fd5b60006040518060e001604052808c73ffffffffffffffffffffffffffffffffffffffff1681526020018b81526020013373ffffffffffffffffffffffffffffffffffffffff1681526020018881526020018a1515815260200189151581526020016000815250905087156123e2576123d88b8b8888886141f1565b8160c00181815250505b80600660008c815260200190815260200160002060008201518160000160006101000a81548173ffffffffffffffffffffffffffffffffffffffff021916908373ffffffffffffffffffffffffffffffffffffffff1602179055506020820151816001015560408201518160020160006101000a81548173ffffffffffffffffffffffffffffffffffffffff021916908373ffffffffffffffffffffffffffffffffffffffff1602179055506060820151816003015560808201518160040160006101000a81548160ff02191690831515021790555060a08201518160040160016101000a81548160ff02191690831515021790555060c082015181600501559050505050505050505050505050565b60006001600281111561252e577f4e487b7100000000000000000000000000000000000000000000000000000000600052602160045260246000fd5b61253783611bd7565b600281111561256f577f4e487b7100000000000000000000000000000000000000000000000000000000600052602160045260246000fd5b149050919050565b6000600282815481106125b3577f4e487b7100000000000000000000000000000000000000000000000000000000600052603260045260246000fd5b906000526020600020906008020160060160009054906101000a900473ffffffffffffffffffffffffffffffffffffffff169050919050565b60066020528060005260406000206000915090508060000160009054906101000a900473ffffffffffffffffffffffffffffffffffffffff16908060010154908060020160009054906101000a900473ffffffffffffffffffffffffffffffffffffffff16908060030154908060040160009054906101000a900460ff16908060040160019054906101000a900460ff16908060050154905087565b60008060009054906101000a900473ffffffffffffffffffffffffffffffffffffffff16905090565b60045481565b60006126c28261106e565b90503373ffffffffffffffffffffffffffffffffffffffff168173ffffffffffffffffffffffffffffffffffffffff1614612732576040517f08c379a000000000000000000000000000000000000000000000000000000000815260040161272990614c9a565b60405180910390fd5b61273b8261374d565b5050565b60026001541415612785576040517f08c379a000000000000000000000000000000000000000000000000000000000815260040161277c90614eba565b60405180910390fd5b6002600181905550600033905060003490506000600660008581526020019081526020016000206040518060e00160405290816000820160009054906101000a900473ffffffffffffffffffffffffffffffffffffffff1673ffffffffffffffffffffffffffffffffffffffff1673ffffffffffffffffffffffffffffffffffffffff168152602001600182015481526020016002820160009054906101000a900473ffffffffffffffffffffffffffffffffffffffff1673ffffffffffffffffffffffffffffffffffffffff1673ffffffffffffffffffffffffffffffffffffffff168152602001600382015481526020016004820160009054906101000a900460ff161515151581526020016004820160019054906101000a900460ff161515151581526020016005820154815250509050600115158160800151151514612904576040517f08c379a00000000000000000000000000000000000000000000000000000000081526004016128fb90614e3a565b60405180910390fd5b60008160600151905080831015612950576040517f08c379a000000000000000000000000000000000000000000000000000000000815260040161294790614bda565b60405180910390fd5b600115158260a00151151514801561297157506129708260c001516132b2565b5b80156129cc5750600060028360c00151815481106129b8577f4e487b7100000000000000000000000000000000000000000000000000000000600052603260045260246000fd5b906000526020600020906008020160070154115b15612a0c576040517f08c379a0000000000000000000000000000000000000000000000000000000008152600401612a0390614d7a565b60405180910390fd5b7f35538759d80c1fd7bb450a0d05601db5a99fa8b5d073a07c847a9fd61029b1078585604051612a3d929190614ef5565b60405180910390a16000826000015190508073ffffffffffffffffffffffffffffffffffffffff166342842e0e846040015187896040518463ffffffff1660e01b8152600401612a8f93929190614a04565b600060405180830381600087803b158015612aa957600080fd5b505af1158015612abd573d6000803e3d6000fd5b5050505060008173ffffffffffffffffffffffffffffffffffffffff1663d48e638a886040518263ffffffff1660e01b8152600401612afc9190614eda565b60206040518083038186803b158015612b1457600080fd5b505afa158015612b28573d6000803e3d6000fd5b505050506040513d601f19601f82011682018060405250810190612b4c91906144e2565b90506000612710612b686003548861442490919063ffffffff16565b612b729190615035565b90506000856040015173ffffffffffffffffffffffffffffffffffffffff168373ffffffffffffffffffffffffffffffffffffffff1614612d3e57612710612c4b8573ffffffffffffffffffffffffffffffffffffffff1663bb3bafd68c6040518263ffffffff1660e01b8152600401612bec9190614eda565b60206040518083038186803b158015612c0457600080fd5b505afa158015612c18573d6000803e3d6000fd5b505050506040513d601f19601f82011682018060405250810190612c3c91906145e6565b8961442490919063ffffffff16565b612c559190615035565b905060008373ffffffffffffffffffffffffffffffffffffffff1682604051612c7d906149d4565b60006040518083038185875af1925050503d8060008114612cba576040519150601f19603f3d011682016040523d82523d6000602084013e612cbf565b606091505b5050905080612d03576040517f08c379a0000000000000000000000000000000000000000000000000000000008152600401612cfa90614e7a565b60405180910390fd5b7f54b960faf8b038c33ba9912fdb9ac1e8e0096c5f327d1c89e62b5d9c5357ddb68483604051612d34929190614a3b565b60405180910390a1505b6000612d6582612d57858b61443a90919063ffffffff16565b61443a90919063ffffffff16565b90506000876040015173ffffffffffffffffffffffffffffffffffffffff1682604051612d91906149d4565b60006040518083038185875af1925050503d8060008114612dce576040519150601f19603f3d011682016040523d82523d6000602084013e612dd3565b606091505b5050905080612e17576040517f08c379a0000000000000000000000000000000000000000000000000000000008152600401612e0e90614e7a565b60405180910390fd5b7f9a37aa02cc986a4a0c2d22af3dcdb9db27c178f7feed43e7037c783b55ed91ba88604001518386866127106003548f612e519190615066565b612e5b9190615035565b87612e669190614fdf565b604051612e77959493929190614a64565b60405180910390a1600115158860a001511515141561313d57600060028960c0015181548110612ed0577f4e487b7100000000000000000000000000000000000000000000000000000000600052603260045260246000fd5b9060005260206000209060080201604051806101000160405290816000820160009054906101000a900473ffffffffffffffffffffffffffffffffffffffff1673ffffffffffffffffffffffffffffffffffffffff1673ffffffffffffffffffffffffffffffffffffffff168152602001600182015481526020016002820160009054906101000a900473ffffffffffffffffffffffffffffffffffffffff1673ffffffffffffffffffffffffffffffffffffffff1673ffffffffffffffffffffffffffffffffffffffff1681526020016003820154815260200160048201548152602001600582015481526020016006820160009054906101000a900473ffffffffffffffffffffffffffffffffffffffff1673ffffffffffffffffffffffffffffffffffffffff1673ffffffffffffffffffffffffffffffffffffffff168152602001600782015481525050905060008160a0015114158015613039575060008160e00151115b1561313b5760008160c0015173ffffffffffffffffffffffffffffffffffffffff168260a0015160405161306c906149d4565b60006040518083038185875af1925050503d80600081146130a9576040519150601f19603f3d011682016040523d82523d6000602084013e6130ae565b606091505b50509050806130f2576040517f08c379a00000000000000000000000000000000000000000000000000000000081526004016130e990614e7a565b60405180910390fd5b7f972fd66eadedfb87beff023a37f4d8c6a91fdd147fa0d3c036e0c6c5a0cdc7958a60c001518360c001518460a0015160405161313193929190614f55565b60405180910390a1505b505b613152846004546134e790919063ffffffff16565b60048190555060008860a0019015159081151581525050600088608001901515908115158152505087600660008d815260200190815260200160002060008201518160000160006101000a81548173ffffffffffffffffffffffffffffffffffffffff021916908373ffffffffffffffffffffffffffffffffffffffff1602179055506020820151816001015560408201518160020160006101000a81548173ffffffffffffffffffffffffffffffffffffffff021916908373ffffffffffffffffffffffffffffffffffffffff1602179055506060820151816003015560808201518160040160006101000a81548160ff02191690831515021790555060a08201518160040160016101000a81548160ff02191690831515021790555060c08201518160050155905050613292346005546134e790919063ffffffff16565b600581905550505050505050505050506001808190555050565b60035481565b60006002808111156132ed577f4e487b7100000000000000000000000000000000000000000000000000000000600052602160045260246000fd5b6132f683611bd7565b600281111561332e577f4e487b7100000000000000000000000000000000000000000000000000000000600052602160045260246000fd5b149050919050565b61333e6134df565b73ffffffffffffffffffffffffffffffffffffffff1661335c612688565b73ffffffffffffffffffffffffffffffffffffffff16146133b2576040517f08c379a00000000000000000000000000000000000000000000000000000000081526004016133a990614dda565b60405180910390fd5b600073ffffffffffffffffffffffffffffffffffffffff168173ffffffffffffffffffffffffffffffffffffffff161415613422576040517f08c379a000000000000000000000000000000000000000000000000000000000815260040161341990614c5a565b60405180910390fd5b8073ffffffffffffffffffffffffffffffffffffffff1660008054906101000a900473ffffffffffffffffffffffffffffffffffffffff1673ffffffffffffffffffffffffffffffffffffffff167f8be0079c531659141344cd1fd0a4f28419497f9722a3daafe3b4186f6b6457e060405160405180910390a3806000806101000a81548173ffffffffffffffffffffffffffffffffffffffff021916908373ffffffffffffffffffffffffffffffffffffffff16021790555050565b600033905090565b600081836134f59190614fdf565b905092915050565b8160a00151613541576040517f08c379a000000000000000000000000000000000000000000000000000000000815260040161353890614dba565b60405180910390fd5b60008160a001511415801561355a575060008160e00151115b80156135975750600073ffffffffffffffffffffffffffffffffffffffff168160c0015173ffffffffffffffffffffffffffffffffffffffff1614155b6135d6576040517f08c379a00000000000000000000000000000000000000000000000000000000081526004016135cd90614d9a565b60405180910390fd5b8060c0015173ffffffffffffffffffffffffffffffffffffffff16826040015173ffffffffffffffffffffffffffffffffffffffff16141561364d576040517f08c379a000000000000000000000000000000000000000000000000000000000815260040161364490614c3a565b60405180910390fd5b60008160c0015173ffffffffffffffffffffffffffffffffffffffff168260a0015160405161367b906149d4565b60006040518083038185875af1925050503d80600081146136b8576040519150601f19603f3d011682016040523d82523d6000602084013e6136bd565b606091505b5050905080613701576040517f08c379a00000000000000000000000000000000000000000000000000000000081526004016136f890614e7a565b60405180910390fd5b7f972fd66eadedfb87beff023a37f4d8c6a91fdd147fa0d3c036e0c6c5a0cdc7958360c001518360c001518460a0015160405161374093929190614f55565b60405180910390a1505050565b60026001541415613793576040517f08c379a000000000000000000000000000000000000000000000000000000000815260040161378a90614eba565b60405180910390fd5b60026001819055506137a4816132b2565b6137e3576040517f08c379a00000000000000000000000000000000000000000000000000000000081526004016137da90614e1a565b60405180910390fd5b60006002828154811061381f577f4e487b7100000000000000000000000000000000000000000000000000000000600052603260045260246000fd5b90600052602060002090600802019050600061383a8361106e565b9050600060066000846001015481526020019081526020016000206040518060e00160405290816000820160009054906101000a900473ffffffffffffffffffffffffffffffffffffffff1673ffffffffffffffffffffffffffffffffffffffff1673ffffffffffffffffffffffffffffffffffffffff168152602001600182015481526020016002820160009054906101000a900473ffffffffffffffffffffffffffffffffffffffff1673ffffffffffffffffffffffffffffffffffffffff1673ffffffffffffffffffffffffffffffffffffffff168152602001600382015481526020016004820160009054906101000a900460ff161515151581526020016004820160019054906101000a900460ff161515151581526020016005820154815250509050600115158160a001511515146139ad576040517f08c379a00000000000000000000000000000000000000000000000000000000081526004016139a490614dfa565b60405180910390fd5b60008360000160009054906101000a900473ffffffffffffffffffffffffffffffffffffffff1690503073ffffffffffffffffffffffffffffffffffffffff168173ffffffffffffffffffffffffffffffffffffffff1663081812fc86600101546040518263ffffffff1660e01b8152600401613a2a9190614eda565b60206040518083038186803b158015613a4257600080fd5b505afa158015613a56573d6000803e3d6000fd5b505050506040513d601f19601f82011682018060405250810190613a7a91906144e2565b73ffffffffffffffffffffffffffffffffffffffff1614613ad0576040517f08c379a0000000000000000000000000000000000000000000000000000000008152600401613ac790614e9a565b60405180910390fd5b8360020160009054906101000a900473ffffffffffffffffffffffffffffffffffffffff1673ffffffffffffffffffffffffffffffffffffffff168173ffffffffffffffffffffffffffffffffffffffff16636352211e86600101546040518263ffffffff1660e01b8152600401613b489190614eda565b60206040518083038186803b158015613b6057600080fd5b505afa158015613b74573d6000803e3d6000fd5b505050506040513d601f19601f82011682018060405250810190613b9891906144e2565b73ffffffffffffffffffffffffffffffffffffffff1614613bee576040517f08c379a0000000000000000000000000000000000000000000000000000000008152600401613be590614cda565b60405180910390fd5b8073ffffffffffffffffffffffffffffffffffffffff166342842e0e8560020160009054906101000a900473ffffffffffffffffffffffffffffffffffffffff168587600101546040518463ffffffff1660e01b8152600401613c5393929190614a04565b600060405180830381600087803b158015613c6d57600080fd5b505af1158015613c81573d6000803e3d6000fd5b505050507f35538759d80c1fd7bb450a0d05601db5a99fa8b5d073a07c847a9fd61029b1078584604051613cb6929190614ef5565b60405180910390a160008173ffffffffffffffffffffffffffffffffffffffff1663d48e638a86600101546040518263ffffffff1660e01b8152600401613cfd9190614eda565b60206040518083038186803b158015613d1557600080fd5b505afa158015613d29573d6000803e3d6000fd5b505050506040513d601f19601f82011682018060405250810190613d4d91906144e2565b90506000612710613d6d600354886005015461442490919063ffffffff16565b613d779190615035565b905060008660020160009054906101000a900473ffffffffffffffffffffffffffffffffffffffff1673ffffffffffffffffffffffffffffffffffffffff168373ffffffffffffffffffffffffffffffffffffffff1614613f0557612710613e788573ffffffffffffffffffffffffffffffffffffffff1663bb3bafd68a600101546040518263ffffffff1660e01b8152600401613e159190614eda565b60206040518083038186803b158015613e2d57600080fd5b505afa158015613e41573d6000803e3d6000fd5b505050506040513d601f19601f82011682018060405250810190613e6591906145e6565b896005015461442490919063ffffffff16565b613e829190615035565b90508273ffffffffffffffffffffffffffffffffffffffff166108fc829081150290604051600060405180830381858888f19350505050158015613eca573d6000803e3d6000fd5b507f54b960faf8b038c33ba9912fdb9ac1e8e0096c5f327d1c89e62b5d9c5357ddb68382604051613efc929190614a3b565b60405180910390a15b6000613f3082613f22858b6005015461443a90919063ffffffff16565b61443a90919063ffffffff16565b905060008860020160009054906101000a900473ffffffffffffffffffffffffffffffffffffffff1673ffffffffffffffffffffffffffffffffffffffff1682604051613f7c906149d4565b60006040518083038185875af1925050503d8060008114613fb9576040519150601f19603f3d011682016040523d82523d6000602084013e613fbe565b606091505b5050905080614002576040517f08c379a0000000000000000000000000000000000000000000000000000000008152600401613ff990614e7a565b60405180910390fd5b7f9a37aa02cc986a4a0c2d22af3dcdb9db27c178f7feed43e7037c783b55ed91ba8960020160009054906101000a900473ffffffffffffffffffffffffffffffffffffffff168386868789886140589190614fdf565b6140629190614fdf565b604051614073959493929190614a64565b60405180910390a1614090846004546134e790919063ffffffff16565b6004819055506140af89600501546005546134e790919063ffffffff16565b60058190555060008760a0019015159081151581525050600087608001901515908115158152505086600660008b60010154815260200190815260200160002060008201518160000160006101000a81548173ffffffffffffffffffffffffffffffffffffffff021916908373ffffffffffffffffffffffffffffffffffffffff1602179055506020820151816001015560408201518160020160006101000a81548173ffffffffffffffffffffffffffffffffffffffff021916908373ffffffffffffffffffffffffffffffffffffffff1602179055506060820151816003015560808201518160040160006101000a81548160ff02191690831515021790555060a08201518160040160016101000a81548160ff02191690831515021790555060c082015181600501559050505050505050505050506001808190555050565b6000808314156141ff574292505b60006040518061010001604052808873ffffffffffffffffffffffffffffffffffffffff1681526020018781526020013373ffffffffffffffffffffffffffffffffffffffff168152602001858152602001848152602001868152602001600073ffffffffffffffffffffffffffffffffffffffff16815260200160008152509050600281908060018154018082558091505060019003906000526020600020906008020160009091909190915060008201518160000160006101000a81548173ffffffffffffffffffffffffffffffffffffffff021916908373ffffffffffffffffffffffffffffffffffffffff1602179055506020820151816001015560408201518160020160006101000a81548173ffffffffffffffffffffffffffffffffffffffff021916908373ffffffffffffffffffffffffffffffffffffffff160217905550606082015181600301556080820151816004015560a0820151816005015560c08201518160060160006101000a81548173ffffffffffffffffffffffffffffffffffffffff021916908373ffffffffffffffffffffffffffffffffffffffff16021790555060e08201518160070155505060006143d1600160028054905061443a90919063ffffffff16565b90507f512995dd21f4740d4aba0bdfb032eb8fdad6034f857101e2217bef00c285015f818360400151846000015160405161440e93929190614f1e565b60405180910390a1809250505095945050505050565b600081836144329190615066565b905092915050565b6000818361444891906150c0565b905092915050565b60008135905061445f816156bd565b92915050565b600081519050614474816156bd565b92915050565b600081359050614489816156d4565b92915050565b60008135905061449e816156eb565b92915050565b6000815190506144b3816156eb565b92915050565b6000602082840312156144cb57600080fd5b60006144d984828501614450565b91505092915050565b6000602082840312156144f457600080fd5b600061450284828501614465565b91505092915050565b600080600080600080600080610100898b03121561452857600080fd5b60006145368b828c01614450565b98505060206145478b828c0161448f565b97505060406145588b828c0161447a565b96505060606145698b828c0161447a565b955050608061457a8b828c0161448f565b94505060a061458b8b828c0161448f565b93505060c061459c8b828c0161448f565b92505060e06145ad8b828c0161448f565b9150509295985092959890939650565b6000602082840312156145cf57600080fd5b60006145dd8482850161448f565b91505092915050565b6000602082840312156145f857600080fd5b6000614606848285016144a4565b91505092915050565b61461881615161565b82525050565b61462781615106565b82525050565b614636816150f4565b82525050565b61464581615118565b82525050565b61465481615173565b82525050565b6000614667601383614fce565b915061467282615236565b602082019050919050565b600061468a601883614fce565b91506146958261525f565b602082019050919050565b60006146ad600b83614fce565b91506146b882615288565b602082019050919050565b60006146d0602583614fce565b91506146db826152b1565b604082019050919050565b60006146f3602683614fce565b91506146fe82615300565b604082019050919050565b6000614716600d83614fce565b91506147218261534f565b602082019050919050565b6000614739602583614fce565b915061474482615378565b604082019050919050565b600061475c600e83614fce565b9150614767826153c7565b602082019050919050565b600061477f602083614fce565b915061478a826153f0565b602082019050919050565b60006147a2601583614fce565b91506147ad82615419565b602082019050919050565b60006147c5601c83614fce565b91506147d082615442565b602082019050919050565b60006147e8601e83614fce565b91506147f38261546b565b602082019050919050565b600061480b600d83614fce565b915061481682615494565b602082019050919050565b600061482e602583614fce565b9150614839826154bd565b604082019050919050565b6000614851600b83614fce565b915061485c8261550c565b602082019050919050565b6000614874601783614fce565b915061487f82615535565b602082019050919050565b6000614897602083614fce565b91506148a28261555e565b602082019050919050565b60006148ba601283614fce565b91506148c582615587565b602082019050919050565b60006148dd601b83614fce565b91506148e8826155b0565b602082019050919050565b6000614900601683614fce565b915061490b826155d9565b602082019050919050565b6000614923601383614fce565b915061492e82615602565b602082019050919050565b6000614946600083614fc3565b91506149518261562b565b600082019050919050565b6000614969601083614fce565b91506149748261562e565b602082019050919050565b600061498c601083614fce565b915061499782615657565b602082019050919050565b60006149af601f83614fce565b91506149ba82615680565b602082019050919050565b6149ce81615157565b82525050565b60006149df82614939565b9150819050919050565b60006020820190506149fe600083018461462d565b92915050565b6000606082019050614a19600083018661460f565b614a26602083018561462d565b614a3360408301846149c5565b949350505050565b6000604082019050614a50600083018561460f565b614a5d60208301846149c5565b9392505050565b600060a082019050614a79600083018861460f565b614a8660208301876149c5565b614a9360408301866149c5565b614aa060608301856149c5565b614aad60808301846149c5565b9695505050505050565b600060e082019050614acc600083018a61462d565b614ad960208301896149c5565b614ae6604083018861461e565b614af360608301876149c5565b614b00608083018661463c565b614b0d60a083018561463c565b614b1a60c08301846149c5565b98975050505050505050565b600061010082019050614b3c600083018b61462d565b614b49602083018a6149c5565b614b56604083018961461e565b614b6360608301886149c5565b614b7060808301876149c5565b614b7d60a08301866149c5565b614b8a60c083018561461e565b614b9760e08301846149c5565b9998505050505050505050565b6000602082019050614bb9600083018461463c565b92915050565b6000602082019050614bd4600083018461464b565b92915050565b60006020820190508181036000830152614bf38161465a565b9050919050565b60006020820190508181036000830152614c138161467d565b9050919050565b60006020820190508181036000830152614c33816146a0565b9050919050565b60006020820190508181036000830152614c53816146c3565b9050919050565b60006020820190508181036000830152614c73816146e6565b9050919050565b60006020820190508181036000830152614c9381614709565b9050919050565b60006020820190508181036000830152614cb38161472c565b9050919050565b60006020820190508181036000830152614cd38161474f565b9050919050565b60006020820190508181036000830152614cf381614772565b9050919050565b60006020820190508181036000830152614d1381614795565b9050919050565b60006020820190508181036000830152614d33816147b8565b9050919050565b60006020820190508181036000830152614d53816147db565b9050919050565b60006020820190508181036000830152614d73816147fe565b9050919050565b60006020820190508181036000830152614d9381614821565b9050919050565b60006020820190508181036000830152614db381614844565b9050919050565b60006020820190508181036000830152614dd381614867565b9050919050565b60006020820190508181036000830152614df38161488a565b9050919050565b60006020820190508181036000830152614e13816148ad565b9050919050565b60006020820190508181036000830152614e33816148d0565b9050919050565b60006020820190508181036000830152614e53816148f3565b9050919050565b60006020820190508181036000830152614e7381614916565b9050919050565b60006020820190508181036000830152614e938161495c565b9050919050565b60006020820190508181036000830152614eb38161497f565b9050919050565b60006020820190508181036000830152614ed3816149a2565b9050919050565b6000602082019050614eef60008301846149c5565b92915050565b6000604082019050614f0a60008301856149c5565b614f17602083018461462d565b9392505050565b6000606082019050614f3360008301866149c5565b614f40602083018561460f565b614f4d604083018461462d565b949350505050565b6000606082019050614f6a60008301866149c5565b614f77602083018561460f565b614f8460408301846149c5565b949350505050565b6000606082019050614fa160008301866149c5565b614fae602083018561462d565b614fbb60408301846149c5565b949350505050565b600081905092915050565b600082825260208201905092915050565b6000614fea82615157565b9150614ff583615157565b9250827fffffffffffffffffffffffffffffffffffffffffffffffffffffffffffffffff0382111561502a576150296151a9565b5b828201905092915050565b600061504082615157565b915061504b83615157565b92508261505b5761505a6151d8565b5b828204905092915050565b600061507182615157565b915061507c83615157565b9250817fffffffffffffffffffffffffffffffffffffffffffffffffffffffffffffffff04831182151516156150b5576150b46151a9565b5b828202905092915050565b60006150cb82615157565b91506150d683615157565b9250828210156150e9576150e86151a9565b5b828203905092915050565b60006150ff82615137565b9050919050565b600061511182615137565b9050919050565b60008115159050919050565b6000819050615132826156a9565b919050565b600073ffffffffffffffffffffffffffffffffffffffff82169050919050565b6000819050919050565b600061516c82615185565b9050919050565b600061517e82615124565b9050919050565b600061519082615197565b9050919050565b60006151a282615137565b9050919050565b7f4e487b7100000000000000000000000000000000000000000000000000000000600052601160045260246000fd5b7f4e487b7100000000000000000000000000000000000000000000000000000000600052601260045260246000fd5b7f4e487b7100000000000000000000000000000000000000000000000000000000600052602160045260246000fd5b7f5072696365206973206e6f7420656e6f75676800000000000000000000000000600082015250565b7f41756374696f6e206e6f742066696e6973686564207965740000000000000000600082015250565b7f42696420746f6f206c6f77000000000000000000000000000000000000000000600082015250565b7f4f66666572206f776e65722063616e6e6f74207265747269657665206f776e2060008201527f66756e6473000000000000000000000000000000000000000000000000000000602082015250565b7f4f776e61626c653a206e6577206f776e657220697320746865207a65726f206160008201527f6464726573730000000000000000000000000000000000000000000000000000602082015250565b7f42696473206578697374696e6700000000000000000000000000000000000000600082015250565b7f596f7520617265206e6f74207468652077696e6e6572206f662074686520617560008201527f6374696f6e000000000000000000000000000000000000000000000000000000602082015250565b7f426964206e6f7420616374697665000000000000000000000000000000000000600082015250565b7f41756374696f6e2063726561746f72206973206e6f74206e6674206f776e6572600082015250565b7f596f7520617265206e6f7420746865206f776e65720000000000000000000000600082015250565b7f43616e6e6f74206269642e204572726f7220696e2061756374696f6e00000000600082015250565b7f416e20616374697665206f6666657220616c7265616479206578697374730000600082015250565b7f4e6f7420746865206f776e657200000000000000000000000000000000000000600082015250565b7f436c61696d2061737365742066726f6d2061756374696f6e206861732070726960008201527f6f72697479000000000000000000000000000000000000000000000000000000602082015250565b7f4e6f206269647320796574000000000000000000000000000000000000000000600082015250565b7f4f66666572206973206e6f7420616e2061756374696f6e000000000000000000600082015250565b7f4f776e61626c653a2063616c6c6572206973206e6f7420746865206f776e6572600082015250565b7f4e4654206e6f7420696e2061756374696f6e0000000000000000000000000000600082015250565b7f5468652061756374696f6e206973207374696c6c206163746976650000000000600082015250565b7f4e4654206e6f7420696e206469726563742073616c6500000000000000000000600082015250565b7f436f6d6d697373696f6e20746f6f206869676800000000000000000000000000600082015250565b50565b7f5472616e73666572206661696c65642e00000000000000000000000000000000600082015250565b7f4e4654206e6f7420617070726f76656400000000000000000000000000000000600082015250565b7f5265656e7472616e637947756172643a207265656e7472616e742063616c6c00600082015250565b600381106156ba576156b9615207565b5b50565b6156c6816150f4565b81146156d157600080fd5b50565b6156dd81615118565b81146156e857600080fd5b50565b6156f481615157565b81146156ff57600080fd5b5056fea264697066735822122005e7e9c878bda5753677e60ee531096a4b8c2b7f42ff51db37ea2080a0b506e964736f6c63430008040033",
  "immutableReferences": {},
  "source": "// SPDX-License-Identifier: UNLICENSED\npragma solidity 0.8.4;\n\n//import \"./AddressUtils.sol\";\nimport \"@openzeppelin/contracts/token/ERC721/ERC721.sol\";\nimport \"@openzeppelin/contracts/access/Ownable.sol\";\nimport \"./PUML721.sol\";\nimport \"@openzeppelin/contracts/utils/math/SafeMath.sol\";\nimport \"@openzeppelin/contracts/security/ReentrancyGuard.sol\";\n\ncontract Engine is Ownable, ReentrancyGuard {\n    using SafeMath for uint256;\n\n    // Event triggered when an auction is created\n    event AuctionCreated(uint256 _index, address _creator, address _asset);\n    // Event triggered when an auction receives a bid\n    event AuctionBid(uint256 _index, address _bidder, uint256 amount);\n    // Event triggered when an ended auction winner claims the NFT\n    event Claim(uint256 auctionIndex, address claimer);\n    // Event triggered when an auction received a bid that implies sending funds back to previous best bidder\n    event ReturnBidFunds(uint256 _index, address _bidder, uint256 amount);\n    // Event triggered when a royalties payment is generated, either on direct sales or on auctions\n    event Royalties(address receiver, uint256 amount);\n    // Event triggered when a payment to the owner is generated, either on direct sales or on auctions.assetAddress\n    // This event is useful to check that all the payments funds are the right ones.\n    event PaymentToOwner(\n        address receiver,\n        uint256 amount,\n        //    uint256 paidByCustomer,\n        uint256 commission,\n        uint256 royalties,\n        uint256 safetyCheckValue\n    );\n\n    // Status of an auction, calculated using the start date, the duration and the current timeblock\n    enum Status {\n        pending,\n        active,\n        finished\n    }\n    // Data of an auction\n    struct Auction {\n        address assetAddress; // token address\n        uint256 assetId; // token id\n        address payable creator; // creator of the auction, which is the token owner\n        uint256 startTime; // time (unix, in seconds) where the auction will start\n        uint256 duration; // duration in seconds of the auction\n        uint256 currentBidAmount; // amount in ETH of the current bid amount\n        address payable currentBidOwner; // address of the user who places the best bid\n        uint256 bidCount; // number of bids of the auction\n    }\n    Auction[] public auctions;\n\n    uint256 public commission = 0; // this is the commission in basic points that will charge the marketplace by default.\n    uint256 public accumulatedCommission = 0; // this is the amount in ETH accumulated on marketplace wallet\n    uint256 public totalSales = 0;\n\n    struct Offer {\n        address assetAddress; // address of the token\n        uint256 tokenId; // the tokenId returned when calling \"createItem\"\n        address payable creator; // who creates the offer\n        uint256 price; // price of each token\n        bool isOnSale; // is on sale or not\n        bool isAuction; // is this offer is for an auction\n        uint256 idAuction; // the id of the auction\n    }\n    mapping(uint256 => Offer) public offers;\n\n    // Every time a token is put on sale, an offer is created. An offer can be a direct sale, an auction\n    // or a combination of both.\n    function createOffer(\n        address _assetAddress, // address of the token\n        uint256 _tokenId, // tokenId\n        bool _isDirectSale, // true if can be bought on a direct sale\n        bool _isAuction, // true if can be bought in an auction\n        uint256 _price, // price that if paid in a direct sale, transfers the NFT\n        uint256 _startPrice, // minimum price on the auction\n        uint256 _startTime, // time when the auction will start. Check the format with frontend\n        uint256 _duration // duration in seconds of the auction\n    ) public {\n        ERC721 asset = ERC721(_assetAddress);\n        require(asset.ownerOf(_tokenId) == msg.sender, \"Not the owner\");\n        require(\n            asset.getApproved(_tokenId) == address(this),\n            \"NFT not approved\"\n        );\n        // Could not be used to update an existing offer (#02)\n        Offer memory previous = offers[_tokenId];\n        require(\n            previous.isOnSale == false && previous.isAuction == false,\n            \"An active offer already exists\"\n        );\n\n        // First create the offer\n        Offer memory offer = Offer({\n            assetAddress: _assetAddress,\n            tokenId: _tokenId,\n            creator: payable(msg.sender),\n            price: _price,\n            isOnSale: _isDirectSale,\n            isAuction: _isAuction,\n            idAuction: 0\n        });\n        // only if the offer has the \"is_auction\" flag, add the auction to the list\n        if (_isAuction) {\n            offer.idAuction = createAuction(\n                _assetAddress,\n                _tokenId,\n                _startPrice,\n                _startTime,\n                _duration\n            );\n        }\n        offers[_tokenId] = offer;\n    }\n\n    // returns the auctionId from the offerId\n    function getAuctionId(uint256 _tokenId) public view returns (uint256) {\n        Offer memory offer = offers[_tokenId];\n        return offer.idAuction;\n    }\n\n    // this method returns the current date and time of the blockchain. Used also to check the contract is alive\n    function ahora() public view returns (uint256) {\n        return block.timestamp;\n    }\n\n    // Remove an auction from the offer that did not have previous bids. Beware could be a direct sale\n    function removeFromAuction(uint256 _tokenId) public {\n        Offer memory offer = offers[_tokenId];\n        require(msg.sender == offer.creator, \"You are not the owner\");\n        Auction memory auction = auctions[offer.tokenId];\n        require(auction.bidCount == 0, \"Bids existing\");\n        offer.isAuction = false;\n        offer.idAuction = 0;\n        offers[_tokenId] = offer;\n    }\n\n    // remove a direct sale from an offer. Beware that could be an auction for the token\n    function removeFromSale(uint256 _tokenId) public {\n        Offer memory offer = offers[_tokenId];\n        require(msg.sender == offer.creator, \"You are not the owner\");\n        offer.isOnSale = false;\n        offers[_tokenId] = offer;\n    }\n\n    // Changes the default commission. Only the owner of the marketplace can do that. In basic points\n    function setCommission(uint256 _commission) public onlyOwner {\n        require(_commission <= 5000, \"Commission too high\");\n        commission = _commission;\n    }\n\n    // called in a direct sale by the customer. Transfer the nft to the customer, the royalties (if any)\n    // to the token creator, the commission for the marketplace is keeped on the contract and the remaining\n    // funds are transferred to the token owner.\n    // is there is an auction open, the last bid amount is sent back to the last bidder\n    // After that, the offer is cleared.\n    function buy(uint256 _tokenId) external payable nonReentrant {\n        address buyer = msg.sender;\n        uint256 paidPrice = msg.value;\n\n        Offer memory offer = offers[_tokenId];\n        require(offer.isOnSale == true, \"NFT not in direct sale\");\n        uint256 price = offer.price;\n        require(paidPrice >= price, \"Price is not enough\");\n\n        //if there is a bid and the auction is closed but not claimed, give priority to claim\n        require(\n            !(offer.isAuction == true &&\n                isFinished(offer.idAuction) &&\n                auctions[offer.idAuction].bidCount > 0),\n            \"Claim asset from auction has priority\"\n        );\n\n        emit Claim(_tokenId, buyer);\n        PUML721 asset = PUML721(offer.assetAddress);\n        asset.safeTransferFrom(offer.creator, buyer, _tokenId);\n\n        // now, pay the amount - commission - royalties to the auction creator\n        address payable creatorNFT = payable(asset.getCreator(_tokenId));\n\n        uint256 commissionToPay = (paidPrice.mul(commission)) / 10000;\n        uint256 royaltiesToPay = 0;\n        if (creatorNFT != offer.creator) {\n            // It is a resale. Transfer royalties\n            royaltiesToPay =\n                (paidPrice.mul(asset.getRoyalties(_tokenId))) /\n                10000;\n\n            (bool success, ) = creatorNFT.call{value: royaltiesToPay}(\"\");\n            require(success, \"Transfer failed.\");\n\n            emit Royalties(creatorNFT, royaltiesToPay);\n        }\n        uint256 amountToPay = paidPrice.sub(commissionToPay).sub(\n            royaltiesToPay\n        );\n\n        (bool success2, ) = offer.creator.call{value: amountToPay}(\"\");\n        require(success2, \"Transfer failed.\");\n        emit PaymentToOwner(\n            offer.creator,\n            amountToPay,\n            //     paidPrice,\n            commissionToPay,\n            royaltiesToPay,\n            amountToPay + ((paidPrice * commission) / 10000) // using safemath will trigger an error because of stack size\n        );\n\n        // is there is an auction open, we have to give back the last bid amount to the last bidder\n        if (offer.isAuction == true) {\n            Auction memory auction = auctions[offer.idAuction];\n            // #4. Only if there is at least a bid and the bid amount > 0, give it back to last bidder\n            if (auction.currentBidAmount != 0 && auction.bidCount > 0) {\n                // return funds to the previuos bidder\n                (bool success3, ) = auction.currentBidOwner.call{\n                    value: auction.currentBidAmount\n                }(\"\");\n                require(success3, \"Transfer failed.\");\n                emit ReturnBidFunds(\n                    offer.idAuction,\n                    auction.currentBidOwner,\n                    auction.currentBidAmount\n                );\n            }\n        }\n\n        accumulatedCommission = accumulatedCommission.add(commissionToPay);\n\n        offer.isAuction = false;\n        offer.isOnSale = false;\n        offers[_tokenId] = offer;\n\n        totalSales = totalSales.add(msg.value);\n    }\n\n    // Creates an auction for a token. It is linked to an offer\n    function createAuction(\n        address _assetAddress, // address of the PUML721 token\n        uint256 _assetId, // id of the NFT\n        uint256 _startPrice, // minimum price\n        uint256 _startTime, // time when the auction will start. Check with frontend because is unix time in seconds, not millisecs!\n        uint256 _duration // duration in seconds of the auction\n    ) private returns (uint256) {\n        if (_startTime == 0) {\n            _startTime = block.timestamp;\n        }\n\n        Auction memory auction = Auction({\n            creator: payable(msg.sender),\n            assetAddress: _assetAddress,\n            assetId: _assetId,\n            startTime: _startTime,\n            duration: _duration,\n            currentBidAmount: _startPrice,\n            currentBidOwner: payable(address(0)),\n            bidCount: 0\n        });\n        auctions.push(auction);\n        uint256 index = auctions.length.sub(1);\n\n        emit AuctionCreated(index, auction.creator, auction.assetAddress);\n\n        return index;\n    }\n\n    // At the end of the call, the amount is saved on the marketplace wallet and the previous bid amount is returned to old bidder\n    // except in the case of the first bid, as could exists a minimum price set by the creator as first bid.\n    function bid(uint256 auctionIndex) public payable nonReentrant {\n        Auction storage auction = auctions[auctionIndex];\n        require(auction.creator != address(0), \"Cannot bid. Error in auction\");\n        require(isActive(auctionIndex), \"Bid not active\");\n        require(msg.value > auction.currentBidAmount, \"Bid too low\");\n        // we got a better bid. Return funds to the previous best bidder\n        // and register the sender as `currentBidOwner`\n\n        // this check is for not transferring back funds on the first bid, as the fist bid is the minimum price set by the auction creator\n        // and the bid owner is address(0)\n        if (\n            auction.currentBidAmount != 0 &&\n            auction.currentBidOwner != address(0)\n        ) {\n            // return funds to the previuos bidder\n            (bool success, ) = auction.currentBidOwner.call{\n                value: auction.currentBidAmount\n            }(\"\");\n            require(success, \"Transfer failed.\");\n            emit ReturnBidFunds(\n                auctionIndex,\n                auction.currentBidOwner,\n                auction.currentBidAmount\n            );\n        }\n        // register new bidder\n        auction.currentBidAmount = msg.value;\n        auction.currentBidOwner = payable(msg.sender);\n        auction.bidCount = auction.bidCount.add(1);\n\n        emit AuctionBid(auctionIndex, msg.sender, msg.value);\n    }\n\n    function getTotalAuctions() public view returns (uint256) {\n        return auctions.length;\n    }\n\n    function isActive(uint256 _auctionIndex) public view returns (bool) {\n        return getStatus(_auctionIndex) == Status.active;\n    }\n\n    function isFinished(uint256 _auctionIndex) public view returns (bool) {\n        return getStatus(_auctionIndex) == Status.finished;\n    }\n\n    // The auctions did not be affected if the current time is 15 seconds wrong\n    // So, according to Consensys security advices, it is safe using block.timestamp\n    function getStatus(uint256 _auctionIndex) public view returns (Status) {\n        Auction storage auction = auctions[_auctionIndex];\n        if (block.timestamp < auction.startTime) {\n            return Status.pending;\n        } else if (block.timestamp < auction.startTime.add(auction.duration)) {\n            return Status.active;\n        } else {\n            return Status.finished;\n        }\n    }\n\n    // returns the end date of the auction, in unix time using seconds\n    function endDate(uint256 _auctionIndex) public view returns (uint256) {\n        Auction storage auction = auctions[_auctionIndex];\n        return auction.startTime.add(auction.duration);\n    }\n\n    // returns the user with the best bid until now on an auction\n    function getCurrentBidOwner(uint256 _auctionIndex)\n        public\n        view\n        returns (address)\n    {\n        return auctions[_auctionIndex].currentBidOwner;\n    }\n\n    // returns the amount in ETH of the best bid until now on an auction\n    function getCurrentBidAmount(uint256 _auctionIndex)\n        public\n        view\n        returns (uint256)\n    {\n        return auctions[_auctionIndex].currentBidAmount;\n    }\n\n    // returns the number of bids of an auction (0 by default)\n    function getBidCount(uint256 _auctionIndex) public view returns (uint256) {\n        return auctions[_auctionIndex].bidCount;\n    }\n\n    // returns the winner of an auction once the auction finished\n    function getWinner(uint256 auctionIndex) public view returns (address) {\n        require(isFinished(auctionIndex), \"Auction not finished yet\");\n        return auctions[auctionIndex].currentBidOwner;\n    }\n\n    // called when the auction is finished by the user who won the auction\n    // transfer the nft to the caller, the royalties (if any) to the nft creator\n    // the commission of the marketplace is calculated, and the remaining funds\n    // are transferred to the token owner\n    // After this, the offer is disabled\n    function claimAsset(uint256 auctionIndex) public {\n        address winner = getWinner(auctionIndex);\n        require(winner == msg.sender, \"You are not the winner of the auction\");\n        auctionTransferAsset(auctionIndex);\n    }\n\n    function automaticSetWinner(uint256 auctionIndex) public onlyOwner {\n        auctionTransferAsset(auctionIndex);\n    }\n\n    function auctionTransferAsset(uint256 auctionIndex) private nonReentrant {\n        require(isFinished(auctionIndex), \"The auction is still active\");\n        Auction storage auction = auctions[auctionIndex];\n\n        address winner = getWinner(auctionIndex);\n\n        // the token could be sold in direct sale or the owner cancelled the auction\n        Offer memory offer = offers[auction.assetId];\n        require(offer.isAuction == true, \"NFT not in auction\");\n\n        PUML721 asset = PUML721(auction.assetAddress);\n\n        // #3, check if the asset owner had removed their approval or the offer creator is not the token owner anymore.\n        require(\n            asset.getApproved(auction.assetId) == address(this),\n            \"NFT not approved\"\n        );\n        require(\n            asset.ownerOf(auction.assetId) == auction.creator,\n            \"Auction creator is not nft owner\"\n        );\n\n        asset.safeTransferFrom(auction.creator, winner, auction.assetId);\n\n        emit Claim(auctionIndex, winner);\n\n        // now, pay the amount - commission - royalties to the auction creator\n        address payable creatorNFT = payable(asset.getCreator(auction.assetId));\n        uint256 commissionToPay = (auction.currentBidAmount.mul(commission)) /\n            10000;\n        uint256 royaltiesToPay = 0;\n        if (creatorNFT != auction.creator) {\n            // It is a resale. Transfer royalties\n            royaltiesToPay =\n                (\n                    auction.currentBidAmount.mul(\n                        asset.getRoyalties(auction.assetId)\n                    )\n                ) /\n                10000;\n            creatorNFT.transfer(royaltiesToPay);\n            emit Royalties(creatorNFT, royaltiesToPay);\n        }\n        uint256 amountToPay = auction.currentBidAmount.sub(commissionToPay).sub(\n            royaltiesToPay\n        );\n\n        (bool success, ) = auction.creator.call{value: amountToPay}(\"\");\n        require(success, \"Transfer failed.\");\n        emit PaymentToOwner(\n            auction.creator,\n            amountToPay,\n            //  auction.currentBidAmount,\n            commissionToPay,\n            royaltiesToPay,\n            amountToPay + commissionToPay + royaltiesToPay\n        );\n\n        accumulatedCommission = accumulatedCommission.add(commissionToPay);\n\n        totalSales = totalSales.add(auction.currentBidAmount);\n\n        offer.isAuction = false;\n        offer.isOnSale = false;\n        offers[auction.assetId] = offer;\n    }\n\n    //Call this method\n    function cancelAuctionOfToken(uint256 _tokenId)\n        external\n        onlyOwner\n        nonReentrant\n    {\n        Offer memory offer = offers[_tokenId];\n        // is there is an auction open, we have to give back the last bid amount to the last bidder\n        require(offer.isAuction, \"Offer is not an auction\");\n        Auction memory auction = auctions[offer.idAuction];\n\n        returnLastBid(offer, auction);\n\n        offer.isAuction = false;\n        offers[_tokenId] = offer;\n    }\n\n    function returnLastBid(Offer memory offer, Auction memory auction)\n        internal\n    {\n        // is there is an auction open, we have to give back the last bid amount to the last bidder\n        require(offer.isAuction, \"Offer is not an auction\");\n        // #4. Only if there is at least a bid and the bid amount > 0, give it back to last bidder\n        require(\n            auction.currentBidAmount != 0 && auction.bidCount > 0 && auction.currentBidOwner != address(0),\n            \"No bids yet\"\n        );\n        require(offer.creator != auction.currentBidOwner, \"Offer owner cannot retrieve own funds\");\n        // return funds to the previuos bidder\n        (bool success3, ) = auction.currentBidOwner.call{\n            value: auction.currentBidAmount\n        }(\"\");\n        require(success3, \"Transfer failed.\");\n        emit ReturnBidFunds(\n            offer.idAuction,\n            auction.currentBidOwner,\n            auction.currentBidAmount\n        );\n    }\n\n    // This method is only callable by the marketplace owner and transfer funds from\n    // the marketplace to the caller.\n    // It us used to move the funds from the marketplace to the investors\n    function extractBalance() public nonReentrant onlyOwner {\n        address payable me = payable(msg.sender);\n        (bool success, ) = me.call{value: accumulatedCommission}(\"\");\n        require(success, \"Transfer failed.\");\n        accumulatedCommission = 0;\n    }\n}\n",
  "sourcePath": "/home/linux/ether/PUML721/contracts/Engine.sol",
  "compiler": {
    "name": "solc",
    "version": "0.8.4+commit.c7e474f2.Emscripten.clang"
  },
  "schemaVersion": "3.3.4",
  "updatedAt": "2021-08-11T08:20:34.051Z",
  "networkType": "ethereum",
  "devdoc": {
    "kind": "dev",
    "methods": {
      "owner()": {
        "details": "Returns the address of the current owner."
      },
      "renounceOwnership()": {
        "details": "Leaves the contract without owner. It will not be possible to call `onlyOwner` functions anymore. Can only be called by the current owner. NOTE: Renouncing ownership will leave the contract without an owner, thereby removing any functionality that is only available to the owner."
      },
      "transferOwnership(address)": {
        "details": "Transfers ownership of the contract to a new account (`newOwner`). Can only be called by the current owner."
      }
    },
    "version": 1
  },
  "userdoc": {
    "kind": "user",
    "methods": {},
    "version": 1
  }
}